{
	"data": {
		"bytecode": {
			"linkReferences": {},
			"object": "6080604052348015600e575f5ffd5b506101798061001c5f395ff3fe608060405234801561000f575f5ffd5b5060043610610029575f3560e01c80631b5e8b931461002d575b5f5ffd5b61003561004b565b60405161004291906100b2565b60405180910390f35b5f5f15156001151514610093576040517f08c379a000000000000000000000000000000000000000000000000000000000815260040161008a90610125565b60405180910390fd5b6001905090565b5f819050919050565b6100ac8161009a565b82525050565b5f6020820190506100c55f8301846100a3565b92915050565b5f82825260208201905092915050565b7f636f6e646974696f6e00000000000000000000000000000000000000000000005f82015250565b5f61010f6009836100cb565b915061011a826100db565b602082019050919050565b5f6020820190508181035f83015261013c81610103565b905091905056fea2646970667358221220e538b85135052755877ad019989179eeb42dd3abaf3f5499ad178f2cd606f51664736f6c634300081e0033",
			"opcodes": "PUSH1 0x80 PUSH1 0x40 MSTORE CALLVALUE DUP1 ISZERO PUSH1 0xE JUMPI PUSH0 PUSH0 REVERT JUMPDEST POP PUSH2 0x179 DUP1 PUSH2 0x1C PUSH0 CODECOPY PUSH0 RETURN INVALID PUSH1 0x80 PUSH1 0x40 MSTORE CALLVALUE DUP1 ISZERO PUSH2 0xF JUMPI PUSH0 PUSH0 REVERT JUMPDEST POP PUSH1 0x4 CALLDATASIZE LT PUSH2 0x29 JUMPI PUSH0 CALLDATALOAD PUSH1 0xE0 SHR DUP1 PUSH4 0x1B5E8B93 EQ PUSH2 0x2D JUMPI JUMPDEST PUSH0 PUSH0 REVERT JUMPDEST PUSH2 0x35 PUSH2 0x4B JUMP JUMPDEST PUSH1 0x40 MLOAD PUSH2 0x42 SWAP2 SWAP1 PUSH2 0xB2 JUMP JUMPDEST PUSH1 0x40 MLOAD DUP1 SWAP2 SUB SWAP1 RETURN JUMPDEST PUSH0 PUSH0 ISZERO ISZERO PUSH1 0x1 ISZERO ISZERO EQ PUSH2 0x93 JUMPI PUSH1 0x40 MLOAD PUSH32 0x8C379A000000000000000000000000000000000000000000000000000000000 DUP2 MSTORE PUSH1 0x4 ADD PUSH2 0x8A SWAP1 PUSH2 0x125 JUMP JUMPDEST PUSH1 0x40 MLOAD DUP1 SWAP2 SUB SWAP1 REVERT JUMPDEST PUSH1 0x1 SWAP1 POP SWAP1 JUMP JUMPDEST PUSH0 DUP2 SWAP1 POP SWAP2 SWAP1 POP JUMP JUMPDEST PUSH2 0xAC DUP2 PUSH2 0x9A JUMP JUMPDEST DUP3 MSTORE POP POP JUMP JUMPDEST PUSH0 PUSH1 0x20 DUP3 ADD SWAP1 POP PUSH2 0xC5 PUSH0 DUP4 ADD DUP5 PUSH2 0xA3 JUMP JUMPDEST SWAP3 SWAP2 POP POP JUMP JUMPDEST PUSH0 DUP3 DUP3 MSTORE PUSH1 0x20 DUP3 ADD SWAP1 POP SWAP3 SWAP2 POP POP JUMP JUMPDEST PUSH32 0x636F6E646974696F6E0000000000000000000000000000000000000000000000 PUSH0 DUP3 ADD MSTORE POP JUMP JUMPDEST PUSH0 PUSH2 0x10F PUSH1 0x9 DUP4 PUSH2 0xCB JUMP JUMPDEST SWAP2 POP PUSH2 0x11A DUP3 PUSH2 0xDB JUMP JUMPDEST PUSH1 0x20 DUP3 ADD SWAP1 POP SWAP2 SWAP1 POP JUMP JUMPDEST PUSH0 PUSH1 0x20 DUP3 ADD SWAP1 POP DUP2 DUP2 SUB PUSH0 DUP4 ADD MSTORE PUSH2 0x13C DUP2 PUSH2 0x103 JUMP JUMPDEST SWAP1 POP SWAP2 SWAP1 POP JUMP INVALID LOG2 PUSH5 0x6970667358 0x22 SLT KECCAK256 JUMPF 0x38B8 MLOAD CALLDATALOAD SDIV 0x27 SSTORE DUP8 PUSH27 0xD019989179EEB42DD3ABAF3F5499AD178F2CD606F51664736F6C63 NUMBER STOP ADDMOD 0x1E STOP CALLER "
		},
		"gasEstimates": {
			"creation": {
				"codeDepositCost": "75400",
				"executionCost": "121",
				"totalCost": "75521"
			},
			"external": {
				"check1()": "441"
			}
		},
		"methodIdentifiers": {
			"check1()": "1b5e8b93"
		}
	},
	"abi": [
		{
			"inputs": [],
			"name": "check1",
			"outputs": [
				{
					"internalType": "uint256",
					"name": "",
					"type": "uint256"
				}
			],
			"stateMutability": "pure",
			"type": "function"
		}
	]
}